{
  "contractName": "EthPriceOracle",
  "abi": [
    {
      "anonymous": false,
      "inputs": [
        {
          "indexed": false,
          "internalType": "address",
          "name": "callerAddress",
          "type": "address"
        },
        {
          "indexed": false,
          "internalType": "uint256",
          "name": "id",
          "type": "uint256"
        }
      ],
      "name": "GetLatestEthPriceEvent",
      "type": "event"
    },
    {
      "anonymous": false,
      "inputs": [
        {
          "indexed": true,
          "internalType": "address",
          "name": "previousOwner",
          "type": "address"
        },
        {
          "indexed": true,
          "internalType": "address",
          "name": "newOwner",
          "type": "address"
        }
      ],
      "name": "OwnershipTransferred",
      "type": "event"
    },
    {
      "anonymous": false,
      "inputs": [
        {
          "indexed": false,
          "internalType": "uint256",
          "name": "ethPrice",
          "type": "uint256"
        },
        {
          "indexed": false,
          "internalType": "address",
          "name": "callerAddress",
          "type": "address"
        }
      ],
      "name": "SetLatestEthPriceEvent",
      "type": "event"
    },
    {
      "inputs": [],
      "name": "owner",
      "outputs": [
        {
          "internalType": "address",
          "name": "",
          "type": "address"
        }
      ],
      "stateMutability": "view",
      "type": "function",
      "constant": true
    },
    {
      "inputs": [],
      "name": "renounceOwnership",
      "outputs": [],
      "stateMutability": "nonpayable",
      "type": "function"
    },
    {
      "inputs": [
        {
          "internalType": "address",
          "name": "newOwner",
          "type": "address"
        }
      ],
      "name": "transferOwnership",
      "outputs": [],
      "stateMutability": "nonpayable",
      "type": "function"
    },
    {
      "inputs": [],
      "name": "getLatestEthPrice",
      "outputs": [
        {
          "internalType": "uint256",
          "name": "",
          "type": "uint256"
        }
      ],
      "stateMutability": "nonpayable",
      "type": "function"
    },
    {
      "inputs": [
        {
          "internalType": "uint256",
          "name": "_ethPrice",
          "type": "uint256"
        },
        {
          "internalType": "address",
          "name": "_callerAddress",
          "type": "address"
        },
        {
          "internalType": "uint256",
          "name": "_requestId",
          "type": "uint256"
        }
      ],
      "name": "setLatestEthPrice",
      "outputs": [],
      "stateMutability": "nonpayable",
      "type": "function"
    }
  ],
  "bytecode": "0x608060405260006002556103e860035534801561001b57600080fd5b5061003861002d61003d60201b60201c565b61004560201b60201c565b610109565b600033905090565b60008060009054906101000a900473ffffffffffffffffffffffffffffffffffffffff169050816000806101000a81548173ffffffffffffffffffffffffffffffffffffffff021916908373ffffffffffffffffffffffffffffffffffffffff1602179055508173ffffffffffffffffffffffffffffffffffffffff168173ffffffffffffffffffffffffffffffffffffffff167f8be0079c531659141344cd1fd0a4f28419497f9722a3daafe3b4186f6b6457e060405160405180910390a35050565b610b5e806101186000396000f3fe608060405234801561001057600080fd5b50600436106100575760003560e01c806330c0b9ec1461005c578063715018a61461007a5780638da5cb5b14610084578063cf642f1f146100a2578063f2fde38b146100be575b600080fd5b6100646100da565b604051610071919061063b565b60405180910390f35b6100826101a1565b005b61008c610229565b6040516100999190610697565b60405180910390f35b6100bc60048036038101906100b7919061070f565b610252565b005b6100d860048036038101906100d39190610762565b61045f565b005b6000600260008154809291906100ef906107be565b9190505550600060035442336002546040516020016101109392919061086f565b6040516020818303038152906040528051906020012060001c61013391906108db565b905060016004600083815260200190815260200160002060006101000a81548160ff0219169083151502179055507f3d50a0c24e97813f35595d2f1f37dbf421d5e97f37abd4e222853e9b9c82c8d5338260405161019292919061090c565b60405180910390a18091505090565b6101a9610556565b73ffffffffffffffffffffffffffffffffffffffff166101c7610229565b73ffffffffffffffffffffffffffffffffffffffff161461021d576040517f08c379a000000000000000000000000000000000000000000000000000000000815260040161021490610992565b60405180910390fd5b610227600061055e565b565b60008060009054906101000a900473ffffffffffffffffffffffffffffffffffffffff16905090565b61025a610556565b73ffffffffffffffffffffffffffffffffffffffff16610278610229565b73ffffffffffffffffffffffffffffffffffffffff16146102ce576040517f08c379a00000000000000000000000000000000000000000000000000000000081526004016102c590610992565b60405180910390fd5b6004600082815260200190815260200160002060009054906101000a900460ff1661032e576040517f08c379a000000000000000000000000000000000000000000000000000000000815260040161032590610a24565b60405180910390fd5b6004600082815260200190815260200160002060006101000a81549060ff021916905581600160006101000a81548173ffffffffffffffffffffffffffffffffffffffff021916908373ffffffffffffffffffffffffffffffffffffffff160217905550600160009054906101000a900473ffffffffffffffffffffffffffffffffffffffff1673ffffffffffffffffffffffffffffffffffffffff1663b5d73ba484836040518363ffffffff1660e01b81526004016103ef929190610a44565b600060405180830381600087803b15801561040957600080fd5b505af115801561041d573d6000803e3d6000fd5b505050507f91b860381268a473101de3379abbb70abf7ea6c9d1735cf58b9816479ff3b7278383604051610452929190610a6d565b60405180910390a1505050565b610467610556565b73ffffffffffffffffffffffffffffffffffffffff16610485610229565b73ffffffffffffffffffffffffffffffffffffffff16146104db576040517f08c379a00000000000000000000000000000000000000000000000000000000081526004016104d290610992565b60405180910390fd5b600073ffffffffffffffffffffffffffffffffffffffff168173ffffffffffffffffffffffffffffffffffffffff160361054a576040517f08c379a000000000000000000000000000000000000000000000000000000000815260040161054190610b08565b60405180910390fd5b6105538161055e565b50565b600033905090565b60008060009054906101000a900473ffffffffffffffffffffffffffffffffffffffff169050816000806101000a81548173ffffffffffffffffffffffffffffffffffffffff021916908373ffffffffffffffffffffffffffffffffffffffff1602179055508173ffffffffffffffffffffffffffffffffffffffff168173ffffffffffffffffffffffffffffffffffffffff167f8be0079c531659141344cd1fd0a4f28419497f9722a3daafe3b4186f6b6457e060405160405180910390a35050565b6000819050919050565b61063581610622565b82525050565b6000602082019050610650600083018461062c565b92915050565b600073ffffffffffffffffffffffffffffffffffffffff82169050919050565b600061068182610656565b9050919050565b61069181610676565b82525050565b60006020820190506106ac6000830184610688565b92915050565b600080fd5b6106c081610622565b81146106cb57600080fd5b50565b6000813590506106dd816106b7565b92915050565b6106ec81610676565b81146106f757600080fd5b50565b600081359050610709816106e3565b92915050565b600080600060608486031215610728576107276106b2565b5b6000610736868287016106ce565b9350506020610747868287016106fa565b9250506040610758868287016106ce565b9150509250925092565b600060208284031215610778576107776106b2565b5b6000610786848285016106fa565b91505092915050565b7f4e487b7100000000000000000000000000000000000000000000000000000000600052601160045260246000fd5b60006107c982610622565b91507fffffffffffffffffffffffffffffffffffffffffffffffffffffffffffffffff82036107fb576107fa61078f565b5b600182019050919050565b6000819050919050565b61082161081c82610622565b610806565b82525050565b60008160601b9050919050565b600061083f82610827565b9050919050565b600061085182610834565b9050919050565b61086961086482610676565b610846565b82525050565b600061087b8286610810565b60208201915061088b8285610858565b60148201915061089b8284610810565b602082019150819050949350505050565b7f4e487b7100000000000000000000000000000000000000000000000000000000600052601260045260246000fd5b60006108e682610622565b91506108f183610622565b925082610901576109006108ac565b5b828206905092915050565b60006040820190506109216000830185610688565b61092e602083018461062c565b9392505050565b600082825260208201905092915050565b7f4f776e61626c653a2063616c6c6572206973206e6f7420746865206f776e6572600082015250565b600061097c602083610935565b915061098782610946565b602082019050919050565b600060208201905081810360008301526109ab8161096f565b9050919050565b7f546869732072657175657374206973206e6f7420696e206d792070656e64696e60008201527f67206c6973742e00000000000000000000000000000000000000000000000000602082015250565b6000610a0e602783610935565b9150610a19826109b2565b604082019050919050565b60006020820190508181036000830152610a3d81610a01565b9050919050565b6000604082019050610a59600083018561062c565b610a66602083018461062c565b9392505050565b6000604082019050610a82600083018561062c565b610a8f6020830184610688565b9392505050565b7f4f776e61626c653a206e6577206f776e657220697320746865207a65726f206160008201527f6464726573730000000000000000000000000000000000000000000000000000602082015250565b6000610af2602683610935565b9150610afd82610a96565b604082019050919050565b60006020820190508181036000830152610b2181610ae5565b905091905056fea2646970667358221220f8d91e7d11c19047c1438294ad2c4b3d9e523aa045b81e20771151d4216f648064736f6c63430008110033",
  "immutableReferences": {},
  "source": "// contracts/EthPriceOracle.sol\n// SPDX-License-Identifier: MIT\npragma solidity ^0.8.9;\n\nimport \"./CallerContractInterface.sol\";\nimport \"openzeppelin-solidity/contracts/access/Ownable.sol\";\n\ncontract EthPriceOracle is Ownable {\n    CallerContractInterface private callerContractInstance;\n\n    uint private randNonce = 0;\n    uint private modulus = 1000;\n    mapping(uint256 => bool) pendingRequests;\n\n    event GetLatestEthPriceEvent(address callerAddress, uint id);\n    event SetLatestEthPriceEvent(uint256 ethPrice, address callerAddress);\n\n    function getLatestEthPrice() public returns (uint256) {\n        randNonce++;\n        uint requestId = uint(keccak256(abi.encodePacked(block.timestamp, msg.sender, randNonce))) % modulus;\n\n        pendingRequests[requestId] = true;\n        emit GetLatestEthPriceEvent(msg.sender, requestId);\n\n        return requestId;\n    }\n\n    function setLatestEthPrice(uint256 _ethPrice, address _callerAddress, uint256 _requestId) public onlyOwner {\n        require(pendingRequests[_requestId], \"This request is not in my pending list.\");\n        delete pendingRequests[_requestId];\n\n        callerContractInstance = CallerContractInterface(_callerAddress);\n        callerContractInstance.callback(_ethPrice, _requestId);\n\n        emit SetLatestEthPriceEvent(_ethPrice, _callerAddress);\n    }\n}",
  "sourcePath": "/Users/miroslavstoyanov/Projects/eth-price-oracle/oracle/contracts/EthPriceOracle.sol",
  "compiler": {
    "name": "solc",
    "version": "0.8.17+commit.8df45f5f.Emscripten.clang"
  },
  "schemaVersion": "3.4.11",
  "updatedAt": "2022-12-08T10:53:29.949Z",
  "networkType": "ethereum",
  "devdoc": {
    "kind": "dev",
    "methods": {
      "owner()": {
        "details": "Returns the address of the current owner."
      },
      "renounceOwnership()": {
        "details": "Leaves the contract without owner. It will not be possible to call `onlyOwner` functions anymore. Can only be called by the current owner. NOTE: Renouncing ownership will leave the contract without an owner, thereby removing any functionality that is only available to the owner."
      },
      "transferOwnership(address)": {
        "details": "Transfers ownership of the contract to a new account (`newOwner`). Can only be called by the current owner."
      }
    },
    "version": 1
  },
  "userdoc": {
    "kind": "user",
    "methods": {},
    "version": 1
  }
}